{"abi":[{"type":"constructor","inputs":[],"stateMutability":"nonpayable"},{"type":"receive","stateMutability":"payable"},{"type":"function","name":"allowance","inputs":[{"name":"owner","type":"address","internalType":"address"},{"name":"spender","type":"address","internalType":"address"}],"outputs":[{"name":"","type":"uint256","internalType":"uint256"}],"stateMutability":"view"},{"type":"function","name":"approve","inputs":[{"name":"spender","type":"address","internalType":"address"},{"name":"value","type":"uint256","internalType":"uint256"}],"outputs":[{"name":"","type":"bool","internalType":"bool"}],"stateMutability":"nonpayable"},{"type":"function","name":"balanceOf","inputs":[{"name":"account","type":"address","internalType":"address"}],"outputs":[{"name":"","type":"uint256","internalType":"uint256"}],"stateMutability":"view"},{"type":"function","name":"decimals","inputs":[],"outputs":[{"name":"","type":"uint8","internalType":"uint8"}],"stateMutability":"view"},{"type":"function","name":"mint","inputs":[],"outputs":[],"stateMutability":"payable"},{"type":"function","name":"name","inputs":[],"outputs":[{"name":"","type":"string","internalType":"string"}],"stateMutability":"view"},{"type":"function","name":"redeem","inputs":[{"name":"amount","type":"uint256","internalType":"uint256"}],"outputs":[],"stateMutability":"nonpayable"},{"type":"function","name":"symbol","inputs":[],"outputs":[{"name":"","type":"string","internalType":"string"}],"stateMutability":"view"},{"type":"function","name":"totalSupply","inputs":[],"outputs":[{"name":"","type":"uint256","internalType":"uint256"}],"stateMutability":"view"},{"type":"function","name":"transfer","inputs":[{"name":"to","type":"address","internalType":"address"},{"name":"value","type":"uint256","internalType":"uint256"}],"outputs":[{"name":"","type":"bool","internalType":"bool"}],"stateMutability":"nonpayable"},{"type":"function","name":"transferFrom","inputs":[{"name":"from","type":"address","internalType":"address"},{"name":"to","type":"address","internalType":"address"},{"name":"value","type":"uint256","internalType":"uint256"}],"outputs":[{"name":"","type":"bool","internalType":"bool"}],"stateMutability":"nonpayable"},{"type":"event","name":"Approval","inputs":[{"name":"owner","type":"address","indexed":true,"internalType":"address"},{"name":"spender","type":"address","indexed":true,"internalType":"address"},{"name":"value","type":"uint256","indexed":false,"internalType":"uint256"}],"anonymous":false},{"type":"event","name":"Transfer","inputs":[{"name":"from","type":"address","indexed":true,"internalType":"address"},{"name":"to","type":"address","indexed":true,"internalType":"address"},{"name":"value","type":"uint256","indexed":false,"internalType":"uint256"}],"anonymous":false},{"type":"error","name":"ERC20InsufficientAllowance","inputs":[{"name":"spender","type":"address","internalType":"address"},{"name":"allowance","type":"uint256","internalType":"uint256"},{"name":"needed","type":"uint256","internalType":"uint256"}]},{"type":"error","name":"ERC20InsufficientBalance","inputs":[{"name":"sender","type":"address","internalType":"address"},{"name":"balance","type":"uint256","internalType":"uint256"},{"name":"needed","type":"uint256","internalType":"uint256"}]},{"type":"error","name":"ERC20InvalidApprover","inputs":[{"name":"approver","type":"address","internalType":"address"}]},{"type":"error","name":"ERC20InvalidReceiver","inputs":[{"name":"receiver","type":"address","internalType":"address"}]},{"type":"error","name":"ERC20InvalidSender","inputs":[{"name":"sender","type":"address","internalType":"address"}]},{"type":"error","name":"ERC20InvalidSpender","inputs":[{"name":"spender","type":"address","internalType":"address"}]}],"bytecode":{"object":"0x608060405234801561000f575f5ffd5b506040518060400160405280600881526020017f636f6f6c436f696e0000000000000000000000000000000000000000000000008152506040518060400160405280600381526020017f4d79540000000000000000000000000000000000000000000000000000000000815250816003908161008b91906102e0565b50806004908161009b91906102e0565b5050506103af565b5f81519050919050565b7f4e487b71000000000000000000000000000000000000000000000000000000005f52604160045260245ffd5b7f4e487b71000000000000000000000000000000000000000000000000000000005f52602260045260245ffd5b5f600282049050600182168061011e57607f821691505b602082108103610131576101306100da565b5b50919050565b5f819050815f5260205f209050919050565b5f6020601f8301049050919050565b5f82821b905092915050565b5f600883026101937fffffffffffffffffffffffffffffffffffffffffffffffffffffffffffffffff82610158565b61019d8683610158565b95508019841693508086168417925050509392505050565b5f819050919050565b5f819050919050565b5f6101e16101dc6101d7846101b5565b6101be565b6101b5565b9050919050565b5f819050919050565b6101fa836101c7565b61020e610206826101e8565b848454610164565b825550505050565b5f5f905090565b610225610216565b6102308184846101f1565b505050565b5b81811015610253576102485f8261021d565b600181019050610236565b5050565b601f8211156102985761026981610137565b61027284610149565b81016020851015610281578190505b61029561028d85610149565b830182610235565b50505b505050565b5f82821c905092915050565b5f6102b85f198460080261029d565b1980831691505092915050565b5f6102d083836102a9565b9150826002028217905092915050565b6102e9826100a3565b67ffffffffffffffff811115610302576103016100ad565b5b61030c8254610107565b610317828285610257565b5f60209050601f831160018114610348575f8415610336578287015190505b61034085826102c5565b8655506103a7565b601f19841661035686610137565b5f5b8281101561037d57848901518255600182019150602085019450602081019050610358565b8683101561039a5784890151610396601f8916826102a9565b8355505b6001600288020188555050505b505050505050565b611286806103bc5f395ff3fe60806040526004361061009f575f3560e01c8063313ce56711610063578063313ce5671461018057806370a08231146101aa57806395d89b41146101e6578063a9059cbb14610210578063db006a751461024c578063dd62ed3e14610274576100a6565b806306fdde03146100aa578063095ea7b3146100d45780631249c58b1461011057806318160ddd1461011a57806323b872dd14610144576100a6565b366100a657005b5f5ffd5b3480156100b5575f5ffd5b506100be6102b0565b6040516100cb9190610d5b565b60405180910390f35b3480156100df575f5ffd5b506100fa60048036038101906100f59190610e0c565b610340565b6040516101079190610e64565b60405180910390f35b610118610362565b005b348015610125575f5ffd5b5061012e6103b0565b60405161013b9190610e8c565b60405180910390f35b34801561014f575f5ffd5b5061016a60048036038101906101659190610ea5565b6103b9565b6040516101779190610e64565b60405180910390f35b34801561018b575f5ffd5b506101946103e7565b6040516101a19190610f10565b60405180910390f35b3480156101b5575f5ffd5b506101d060048036038101906101cb9190610f29565b6103ef565b6040516101dd9190610e8c565b60405180910390f35b3480156101f1575f5ffd5b506101fa610434565b6040516102079190610d5b565b60405180910390f35b34801561021b575f5ffd5b5061023660048036038101906102319190610e0c565b6104c4565b6040516102439190610e64565b60405180910390f35b348015610257575f5ffd5b50610272600480360381019061026d9190610f54565b6104e6565b005b34801561027f575f5ffd5b5061029a60048036038101906102959190610f7f565b6105e7565b6040516102a79190610e8c565b60405180910390f35b6060600380546102bf90610fea565b80601f01602080910402602001604051908101604052809291908181526020018280546102eb90610fea565b80156103365780601f1061030d57610100808354040283529160200191610336565b820191905f5260205f20905b81548152906001019060200180831161031957829003601f168201915b5050505050905090565b5f5f61034a610669565b9050610357818585610670565b600191505092915050565b5f34116103a4576040517f08c379a000000000000000000000000000000000000000000000000000000000815260040161039b90611064565b60405180910390fd5b6103ae3334610682565b565b5f600254905090565b5f5f6103c3610669565b90506103d0858285610701565b6103db858585610794565b60019150509392505050565b5f6012905090565b5f5f5f8373ffffffffffffffffffffffffffffffffffffffff1673ffffffffffffffffffffffffffffffffffffffff1681526020019081526020015f20549050919050565b60606004805461044390610fea565b80601f016020809104026020016040519081016040528092919081815260200182805461046f90610fea565b80156104ba5780601f10610491576101008083540402835291602001916104ba565b820191905f5260205f20905b81548152906001019060200180831161049d57829003601f168201915b5050505050905090565b5f5f6104ce610669565b90506104db818585610794565b600191505092915050565b806104f0336103ef565b1015610531576040517f08c379a0000000000000000000000000000000000000000000000000000000008152600401610528906110cc565b60405180910390fd5b61053b3382610884565b5f3373ffffffffffffffffffffffffffffffffffffffff168260405161056090611117565b5f6040518083038185875af1925050503d805f811461059a576040519150601f19603f3d011682016040523d82523d5f602084013e61059f565b606091505b50509050806105e3576040517f08c379a00000000000000000000000000000000000000000000000000000000081526004016105da90611175565b60405180910390fd5b5050565b5f60015f8473ffffffffffffffffffffffffffffffffffffffff1673ffffffffffffffffffffffffffffffffffffffff1681526020019081526020015f205f8373ffffffffffffffffffffffffffffffffffffffff1673ffffffffffffffffffffffffffffffffffffffff1681526020019081526020015f2054905092915050565b5f33905090565b61067d8383836001610903565b505050565b5f73ffffffffffffffffffffffffffffffffffffffff168273ffffffffffffffffffffffffffffffffffffffff16036106f2575f6040517fec442f050000000000000000000000000000000000000000000000000000000081526004016106e991906111a2565b60405180910390fd5b6106fd5f8383610ad2565b5050565b5f61070c84846105e7565b90507fffffffffffffffffffffffffffffffffffffffffffffffffffffffffffffffff81101561078e578181101561077f578281836040517ffb8f41b2000000000000000000000000000000000000000000000000000000008152600401610776939291906111bb565b60405180910390fd5b61078d84848484035f610903565b5b50505050565b5f73ffffffffffffffffffffffffffffffffffffffff168373ffffffffffffffffffffffffffffffffffffffff1603610804575f6040517f96c6fd1e0000000000000000000000000000000000000000000000000000000081526004016107fb91906111a2565b60405180910390fd5b5f73ffffffffffffffffffffffffffffffffffffffff168273ffffffffffffffffffffffffffffffffffffffff1603610874575f6040517fec442f0500000000000000000000000000000000000000000000000000000000815260040161086b91906111a2565b60405180910390fd5b61087f838383610ad2565b505050565b5f73ffffffffffffffffffffffffffffffffffffffff168273ffffffffffffffffffffffffffffffffffffffff16036108f4575f6040517f96c6fd1e0000000000000000000000000000000000000000000000000000000081526004016108eb91906111a2565b60405180910390fd5b6108ff825f83610ad2565b5050565b5f73ffffffffffffffffffffffffffffffffffffffff168473ffffffffffffffffffffffffffffffffffffffff1603610973575f6040517fe602df0500000000000000000000000000000000000000000000000000000000815260040161096a91906111a2565b60405180910390fd5b5f73ffffffffffffffffffffffffffffffffffffffff168373ffffffffffffffffffffffffffffffffffffffff16036109e3575f6040517f94280d620000000000000000000000000000000000000000000000000000000081526004016109da91906111a2565b60405180910390fd5b8160015f8673ffffffffffffffffffffffffffffffffffffffff1673ffffffffffffffffffffffffffffffffffffffff1681526020019081526020015f205f8573ffffffffffffffffffffffffffffffffffffffff1673ffffffffffffffffffffffffffffffffffffffff1681526020019081526020015f20819055508015610acc578273ffffffffffffffffffffffffffffffffffffffff168473ffffffffffffffffffffffffffffffffffffffff167f8c5be1e5ebec7d5bd14f71427d1e84f3dd0314c0f7b2291e5b200ac8c7c3b92584604051610ac39190610e8c565b60405180910390a35b50505050565b5f73ffffffffffffffffffffffffffffffffffffffff168373ffffffffffffffffffffffffffffffffffffffff1603610b22578060025f828254610b16919061121d565b92505081905550610bf0565b5f5f5f8573ffffffffffffffffffffffffffffffffffffffff1673ffffffffffffffffffffffffffffffffffffffff1681526020019081526020015f2054905081811015610bab578381836040517fe450d38c000000000000000000000000000000000000000000000000000000008152600401610ba2939291906111bb565b60405180910390fd5b8181035f5f8673ffffffffffffffffffffffffffffffffffffffff1673ffffffffffffffffffffffffffffffffffffffff1681526020019081526020015f2081905550505b5f73ffffffffffffffffffffffffffffffffffffffff168273ffffffffffffffffffffffffffffffffffffffff1603610c37578060025f8282540392505081905550610c81565b805f5f8473ffffffffffffffffffffffffffffffffffffffff1673ffffffffffffffffffffffffffffffffffffffff1681526020019081526020015f205f82825401925050819055505b8173ffffffffffffffffffffffffffffffffffffffff168373ffffffffffffffffffffffffffffffffffffffff167fddf252ad1be2c89b69c2b068fc378daa952ba7f163c4a11628f55a4df523b3ef83604051610cde9190610e8c565b60405180910390a3505050565b5f81519050919050565b5f82825260208201905092915050565b8281835e5f83830152505050565b5f601f19601f8301169050919050565b5f610d2d82610ceb565b610d378185610cf5565b9350610d47818560208601610d05565b610d5081610d13565b840191505092915050565b5f6020820190508181035f830152610d738184610d23565b905092915050565b5f5ffd5b5f73ffffffffffffffffffffffffffffffffffffffff82169050919050565b5f610da882610d7f565b9050919050565b610db881610d9e565b8114610dc2575f5ffd5b50565b5f81359050610dd381610daf565b92915050565b5f819050919050565b610deb81610dd9565b8114610df5575f5ffd5b50565b5f81359050610e0681610de2565b92915050565b5f5f60408385031215610e2257610e21610d7b565b5b5f610e2f85828601610dc5565b9250506020610e4085828601610df8565b9150509250929050565b5f8115159050919050565b610e5e81610e4a565b82525050565b5f602082019050610e775f830184610e55565b92915050565b610e8681610dd9565b82525050565b5f602082019050610e9f5f830184610e7d565b92915050565b5f5f5f60608486031215610ebc57610ebb610d7b565b5b5f610ec986828701610dc5565b9350506020610eda86828701610dc5565b9250506040610eeb86828701610df8565b9150509250925092565b5f60ff82169050919050565b610f0a81610ef5565b82525050565b5f602082019050610f235f830184610f01565b92915050565b5f60208284031215610f3e57610f3d610d7b565b5b5f610f4b84828501610dc5565b91505092915050565b5f60208284031215610f6957610f68610d7b565b5b5f610f7684828501610df8565b91505092915050565b5f5f60408385031215610f9557610f94610d7b565b5b5f610fa285828601610dc5565b9250506020610fb385828601610dc5565b9150509250929050565b7f4e487b71000000000000000000000000000000000000000000000000000000005f52602260045260245ffd5b5f600282049050600182168061100157607f821691505b60208210810361101457611013610fbd565b5b50919050565b7f53656e6420466c6f7720746f206d696e740000000000000000000000000000005f82015250565b5f61104e601183610cf5565b91506110598261101a565b602082019050919050565b5f6020820190508181035f83015261107b81611042565b9050919050565b7f4e6f7420656e6f75676820746f6b656e730000000000000000000000000000005f82015250565b5f6110b6601183610cf5565b91506110c182611082565b602082019050919050565b5f6020820190508181035f8301526110e3816110aa565b9050919050565b5f81905092915050565b50565b5f6111025f836110ea565b915061110d826110f4565b5f82019050919050565b5f611121826110f7565b9150819050919050565b7f52656465656d206661696c6564000000000000000000000000000000000000005f82015250565b5f61115f600d83610cf5565b915061116a8261112b565b602082019050919050565b5f6020820190508181035f83015261118c81611153565b9050919050565b61119c81610d9e565b82525050565b5f6020820190506111b55f830184611193565b92915050565b5f6060820190506111ce5f830186611193565b6111db6020830185610e7d565b6111e86040830184610e7d565b949350505050565b7f4e487b71000000000000000000000000000000000000000000000000000000005f52601160045260245ffd5b5f61122782610dd9565b915061123283610dd9565b925082820190508082111561124a576112496111f0565b5b9291505056fea264697066735822122020ecc1d0c0ff48165ed618c7fcbe34edd256574b486c8002134fea4aa527a2ec64736f6c634300081e0033","linkReferences":{}},"methodIdentifiers":{"allowance(address,address)":"dd62ed3e","approve(address,uint256)":"095ea7b3","balanceOf(address)":"70a08231","decimals()":"313ce567","mint()":"1249c58b","name()":"06fdde03","redeem(uint256)":"db006a75","symbol()":"95d89b41","totalSupply()":"18160ddd","transfer(address,uint256)":"a9059cbb","transferFrom(address,address,uint256)":"23b872dd"},"id":5}