{"abi":[{"type":"function","name":"getWallet","inputs":[{"name":"uuid","type":"string","internalType":"string"}],"outputs":[{"name":"","type":"address","internalType":"address"}],"stateMutability":"view"},{"type":"function","name":"setWallet","inputs":[{"name":"uuid","type":"string","internalType":"string"},{"name":"wallet","type":"address","internalType":"address"}],"outputs":[],"stateMutability":"nonpayable"},{"type":"function","name":"uuidToWallet","inputs":[{"name":"","type":"string","internalType":"string"}],"outputs":[{"name":"","type":"address","internalType":"address"}],"stateMutability":"view"}],"bytecode":{"object":"0x6080604052348015600e575f5ffd5b506105478061001c5f395ff3fe608060405234801561000f575f5ffd5b506004361061003f575f3560e01c8063a4e2df6614610043578063ae05738414610073578063e02c9900146100a3575b5f5ffd5b61005d60048036038101906100589190610222565b6100bf565b60405161006a91906102ac565b60405180910390f35b61008d600480360381019061008891906103fd565b610107565b60405161009a91906102ac565b60405180910390f35b6100bd60048036038101906100b8919061046e565b61014e565b005b5f5f83836040516100d19291906104f9565b90815260200160405180910390205f9054906101000a900473ffffffffffffffffffffffffffffffffffffffff16905092915050565b5f818051602081018201805184825260208301602085012081835280955050505050505f915054906101000a900473ffffffffffffffffffffffffffffffffffffffff1681565b805f84846040516101609291906104f9565b90815260200160405180910390205f6101000a81548173ffffffffffffffffffffffffffffffffffffffff021916908373ffffffffffffffffffffffffffffffffffffffff160217905550505050565b5f604051905090565b5f5ffd5b5f5ffd5b5f5ffd5b5f5ffd5b5f5ffd5b5f5f83601f8401126101e2576101e16101c1565b5b8235905067ffffffffffffffff8111156101ff576101fe6101c5565b5b60208301915083600182028301111561021b5761021a6101c9565b5b9250929050565b5f5f60208385031215610238576102376101b9565b5b5f83013567ffffffffffffffff811115610255576102546101bd565b5b610261858286016101cd565b92509250509250929050565b5f73ffffffffffffffffffffffffffffffffffffffff82169050919050565b5f6102968261026d565b9050919050565b6102a68161028c565b82525050565b5f6020820190506102bf5f83018461029d565b92915050565b5f5ffd5b5f601f19601f8301169050919050565b7f4e487b71000000000000000000000000000000000000000000000000000000005f52604160045260245ffd5b61030f826102c9565b810181811067ffffffffffffffff8211171561032e5761032d6102d9565b5b80604052505050565b5f6103406101b0565b905061034c8282610306565b919050565b5f67ffffffffffffffff82111561036b5761036a6102d9565b5b610374826102c9565b9050602081019050919050565b828183375f83830152505050565b5f6103a161039c84610351565b610337565b9050828152602081018484840111156103bd576103bc6102c5565b5b6103c8848285610381565b509392505050565b5f82601f8301126103e4576103e36101c1565b5b81356103f484826020860161038f565b91505092915050565b5f60208284031215610412576104116101b9565b5b5f82013567ffffffffffffffff81111561042f5761042e6101bd565b5b61043b848285016103d0565b91505092915050565b61044d8161028c565b8114610457575f5ffd5b50565b5f8135905061046881610444565b92915050565b5f5f5f60408486031215610485576104846101b9565b5b5f84013567ffffffffffffffff8111156104a2576104a16101bd565b5b6104ae868287016101cd565b935093505060206104c18682870161045a565b9150509250925092565b5f81905092915050565b5f6104e083856104cb565b93506104ed838584610381565b82840190509392505050565b5f6105058284866104d5565b9150819050939250505056fea2646970667358221220d34126f66dd9c498faf1a7cd0ff15188f2afdc617fe5f01eda1733f5c50f21a864736f6c634300081e0033","linkReferences":{}},"methodIdentifiers":{"getWallet(string)":"a4e2df66","setWallet(string,address)":"e02c9900","uuidToWallet(string)":"ae057384"},"id":0}